:10089E007D037CF5D3EF9400EE94004007EF1F70BC
:0808AE00F31E80F0DCEEDDEA30
:0108B600221F
:1008CE00758920759850D2AFD2ACD28E758DFD75CC
:0508DE008BFDC2992210
:0E08E300C2ACC2998F993099FDC299D2AC2255
:10084300C2A67F007E007D007C0020A7FDE4FBD2D2
:10085300A6780112088BC2A630A70DEF2401FFE48E
:100863003EFEE43DFDE43CFC0BBB18E3D2A6ED6485
:0408730080FDC2A69C
:01087700225E
:080800008F0B8E0A8D098C0894
:0C080800E4750FFFF50EF50DF50CFBFA82
:10081400E50B550FFFE508550C8F101208E3AF0BDD
:10082400AE0AAD09AC0878081208788F0B8E0A8DD1
:03083400098C0824
:0B0837000BBB00010AEB64044A70D206
:010842002293
:030023000208FDD3
:0908FD00309805859915C2983266
:1008B7001208CE7F241208E31208431208007F644F
:0708C7007E0012089E80EC88
:030000000208F102
:0C08F100787FE4F6D8FD7581150208B789
:10087800E8600FECC313FCED13FDEE13FEEF13FF5E
:03088800D8F12282
:10088B00E8600FEFC333FFEE33FEED33FDEC33FCCB
:03089B00D8F1226F
:00000001FF
